S00F00004D61657374726F2E737265633A
S11300000C9434000C9451000C9451000C94510045
S11300100C9451000C9451000C9451000C94510018
S11300200C9451000C9451000C9451000C94510008
S11300300C9451000C9451000C9451000C945100F8
S11300400C9451000C9451000C9401010C94510037
S11300500C9451000C9451000C9451000C945100D8
S11300600C9451000C94510011241FBECFEFD8E022
S1130070DEBFCDBF11E0A0E0B1E0E4EAF3E002C0EE
S113008005900D92A633B107D9F721E0A6E3B1E0BC
S113009001C01D92A835B207E1F70E9433010C9408
S11300A0D0010C9400000F931F93CF938B019C01FC
S11300B0C42F87B18F7C87B9E9EBF0E080818C7F16
S11300C08083403141F0403461F0443079F48081E0
S11300D0816080830BC0E9EBF0E0808182608083E3
S11300E005C0E9EBF0E080818360808360E074E226
S11300F084EF90E0A90198010E948801CA01B90126
S113010060517109810991094C2F50E09A01220F25
S1130110331F032E000C440B550B0E9488012093BF
S1130120B800CF911F910F91089584EA8093BC0089
S11301308091BC008823E4F79091B900987F81E016
S1130140983009F080E0089584E98093BC00089514
S11301508093BB0084E88093BC008091BC0088231A
S1130160E4F78091B900887F0895CF93C82F0E9447
S1130170950080E60E94A80080E20E94A8008C2FCF
S11301800E94A8000E94A400CF9108950E949500A7
S113019080E60E94A80080E10E94A8000E94A400BA
S11301A008950E94950080E60E94A80081E10E94C3
S11301B0A8000E94A400089580913801803559F464
S11301C089E391E00E94AA010E94B50080E091E0D9
S11301D00E947B01089580913801833589F48091D0
S11301E03901813339F40E94C6008AE091E00E940B
S11301F07B0108950E94D10087E191E00E947B0178
S113020008951F920F920FB60F9211248F939F930C
S1130210EF93FF938091C6008A3011F08D3061F422
S1130220E0913701F0E0E85CFE4F108281E08093BA
S11302303601109237010EC0909137019F3150F46E
S1130240E091370191E09E0F90933701F0E0E85C74
S1130250FE4F8083FF91EF919F918F910F900FBE7E
S11302600F901F90189541E060EA76E881E090E0F5
S11302700E94530061E080ED90E00E944D0178946B
S113028085E291E00E947B01809136018823E1F3AD
S11302900E94DC0010923601F7CFCF93DF939C01CC
S11302A09AB192609AB99AB19E7F9AB9E0ECF0E063
S11302B01082A1ECB0E01C92C2ECD0E018829081D4
S11302C0926090833093C5002093C40086E08883B5
S11302D088E18C93613029F4E1ECF0E0808180685E
S11302E08083DF91CF9108959091C00095FFFCCF5A
S11302F08093C6000895CF93DF93EC0103C0219649
S11303000E94740188818111FACFDF91CF91089501
S1130310A1E21A2EAA1BBB1BFD010DC0AA1FBB1F05
S1130320EE1FFF1FA217B307E407F50720F0A21B77
S1130330B30BE40BF50B661F771F881F991F1A94E4
S113034069F760957095809590959B01AC01BD010E
S1130350CF010895FC0188279927E8942191203240
S1130360E9F3293010F02E30C8F32B3241F02D324E
S113037039F4689404C00E94C801820F911D219130
S113038020532A30C0F31EF4909581959F4F089511
S11303907AE0979F902D879F802D910D11240895C9
S10703A0F894FFCFFB
S11303A450756D70204F4B0D0A00536572766F20A3
S11303B44F70656E0D0A00536572766F20436C6F3F
S11303C473650D0A0053697374656D61206C6973F8
S10903D4746F0D0A000025
S9030000FC
