:100000000C9434000C9451000C9451000C94510049
:100010000C9451000C9451000C9451000C9451001C
:100020000C9451000C9451000C9451000C9451000C
:100030000C9451000C9451000C9451000C945100FC
:100040000C9451000C9451000C9480030C945100BA
:100050000C9451000C9451000C9451000C945100DC
:100060000C9451000C94510011241FBECFEFD8E026
:10007000DEBFCDBF11E0A0E0B1E0E4E7FFE002C0E9
:1000800005900D92AA3DB107D9F721E0AAEDB1E0A4
:1000900001C01D92AE3FB207E1F70E94B2030C947B
:1000A000B8070C940000FC01A281B3814C9121E0BF
:1000B00030E0C901048002C0880F991F0A94E2F75A
:1000C000842B8C93A081B1818C91048002C0220F7B
:1000D000331F0A94E2F7209528232C930895FC01FE
:1000E000662371F0A081B1812C9181E090E00480C1
:1000F00002C0880F991F0A94E2F7822B8C9308950F
:10010000A081B1814C9121E030E0C901048002C09E
:10011000880F991F0A94E2F7809584238C930895A1
:10012000CF93DF93EC01259661E0CE010E946F0032
:1001300085E08A95F1F7000060E0CE010E946F0033
:100140008FE891E00197F1F700C00000DF91CF91B7
:1001500008950F931F93CF938C01C62F61700A9659
:100160000E946F00C1FB662760F9C8010F960E94CC
:100170006F00C2FB662760F9C80144960E946F00B9
:10018000C3FB662760F9C80149960E946F00C80149
:100190000E949000CF911F910F9108950F931F938C
:1001A000CF938C01C62F60E00E946F006C2F629588
:1001B0006F70C8010E94A9006C2F6F70C8010E9467
:1001C000A9008FE39FE10197F1F700C00000CF91F4
:1001D0001F910F9108950F931F93CF938C01C62FFA
:1001E00061E00E946F006C2F62956F70C8010E94E1
:1001F000A9006C2F6F70C8010E94A90087EC90E0E5
:100200000197F1F700C00000CF911F910F91089561
:100210000F931F93CF93DF938C01EB0104C02196C2
:10022000C8010E94EB0068816111F9CFDF91CF9185
:100230001F910F910895411102C020E001C020E4F8
:10024000620F60680E94CE00089561E00E94CE00B7
:100250008FE39FE10197F1F700C000000895CF936D
:10026000DF93EC010E945300CE0105960E945300DB
:10027000CE010A960E945300CE010F960E945300B1
:10028000CE0144960E945300CE0149960E9453002D
:100290002FEF89EF90E0215080409040E1F700C0BF
:1002A000000060E0CE010E946F0063E0CE010E947A
:1002B000A9008FE19EE40197F1F700C0000063E020
:1002C000CE010E94A90087E592E00197F1F700C0F6
:1002D000000063E0CE010E94A90062E0CE010E940E
:1002E000A90068E2CE010E94CE006CE0CE010E941F
:1002F000CE0066E0CE010E94CE00CE010E94250114
:10030000DF91CF9108950F931F93CF938B019C01A1
:10031000C42F87B18F7C87B9E9EBF0E080818C7FB7
:100320008083403141F0403461F0443079F4808181
:10033000816080830BC0E9EBF0E080818260808384
:1003400005C0E9EBF0E080818360808360E074E2C7
:1003500084EF90E0A90198010E947204CA01B901DA
:1003600060517109810991094C2F50E09A01220FC7
:10037000331F032E000C440B550B0E947204209374
:10038000B800CF911F910F91089584EA8093BC002B
:1003900080E090E007C09C012F5F3F4F8131974282
:1003A00090F4C9012091BC002223ACF78091B900E0
:1003B000887F883021F0803121F481E0089581E048
:1003C000089580E0089580E0089584EA8093BC0059
:1003D00080E090E007C09C012F5F3F4F8131974242
:1003E00068F4C9012091BC002223ACF79091B900B8
:1003F000987F81E0903119F080E0089580E00895C1
:1004000084E98093BC0008958093BB0084E88093C6
:10041000BC0080E090E007C09C012F5F3F4F81311E
:10042000974248F4C9012091BC002223ACF7809187
:10043000B900887F089580E00895FC01662321F0CB
:1004400084EC8093BC000CC084E88093BC0008C09E
:10045000A9014F5F5F4F21313742C0F49A0102C0BA
:1004600020E030E09091BC00992394F79091B9007E
:10047000987F662311F0903521F0611109C09835FD
:1004800049F48091BB00808381E0089580E0089565
:1004900080E0089580E008950E94C50180E60E94F2
:1004A000040280E20E9404020E94000208950E9459
:1004B000C50180E60E94040281E20E9404020E94BB
:1004C000000208950E94C50180E60E94040280E1B6
:1004D0000E9404020E94000208950E94C50180E665
:1004E0000E94040281E10E9404020E940002089519
:1004F0000E94C50182E60E94040281E40E94040277
:100500000E94000208950E94C50182E60E94040232
:1005100082E40E9404020E9400020895CF93C82F33
:100520000E94C50182E60E94040283E40E94040244
:100530008C2F0E9404020E940002CF910895CF9355
:10054000DF931F92CDB7DEB719820E94C5018823C1
:1005500091F082E60E94040280E40E9404020E945C
:10056000E50183E60E94040260E0CE0101960E944C
:100570001D020E94000289810F90DF91CF910895A2
:10058000EF92FF920F931F93CF93DF93CDB7DEB718
:10059000A8970FB6F894DEBF0FBECDBF8091DE01E5
:1005A000813579F50E949F02182F24E6289FC0010B
:1005B00011246FEF70E00E945E04261B1F922F93A0
:1005C0001F921F938EE191E09F938F93CE0101962E
:1005D0007C019F938F930E94CE04C7010E94510417
:1005E0000FB6F894DEBF0FBECDBF163928F480E3F6
:1005F00091E00E94510477C083E491E00E9451048D
:1006000072C08091DE018035B9F48091DF018133C1
:1006100039F40E944C0283E591E00E94510463C0CA
:100620008091DF01803309F05EC00E94570280E6AE
:1006300091E00E94510457C08091DE018335B9F4E6
:100640008091DF01813339F40E9462028CE691E0EF
:100650000E94510448C08091DF01803309F043C0FB
:100660000E946D0289E791E00E9451043CC0809194
:10067000DE018634B1F48091DF01813339F40E94C8
:10068000780287E891E00E9451042DC08091DF013B
:10069000803349F50E94830280E991E00E94510471
:1006A00022C08091DE018635F1F48FED91E00E9449
:1006B000A8047C010E948E02FF24FF92EF928AE937
:1006C00091E09F938F938E010F5F1F4F1F930F93A6
:1006D0000E94CE04C8010E9451040F900F900F9009
:1006E0000F900F900F90A8960FB6F894DEBF0FBE34
:1006F000CDBFDF91CF911F910F91FF90EF900895A3
:100700001F920F920FB60F9211248F939F93EF9326
:10071000FF938091C6008A3011F08D3061F4E09132
:10072000DD01F0E0E252FE4F108281E08093DC01B7
:100730001092DD010EC09091DD019F3150F4E091E7
:10074000DD0191E09E0F9093DD01F0E0E252FE4F5B
:100750008083FF91EF919F918F910F900FBE0F902B
:100760001F901895CF93DF93CDB7DEB761970FB683
:10077000F894DEBF0FBECDBF41E060EA76E881E0CD
:1007800090E00E94830161E080ED90E00E942304EC
:1007900080E091E00E942F01789480E091E00E9437
:1007A000250140E060E080E091E00E941B016AEAE0
:1007B00071E080E091E00E94080189EB91E00E94E5
:1007C00051048091DC01882321F00E94C002109224
:1007D000DC018091DA019091DB019C012F5F3F4F9A
:1007E0003093DB012093DA01853F914028F10E948C
:1007F0009F02182F41E060E080E091E00E941B0121
:100800001F921F9389EC91E09F938F938E010F5F4E
:100810001F4F1F930F930E94CE04B80180E091E018
:100820000E9408011092DB011092DA010F900F90E4
:100830000F900F900F900F908FE99FE00197F1F7C5
:1008400000C00000BECFCF93DF939C019AB19260AD
:100850009AB99AB19E7F9AB9E0ECF0E01082A1ECCF
:10086000B0E01C92C2ECD0E018829081926090833C
:100870003093C5002093C40086E0888388E18C9380
:10088000613029F4E1ECF0E0808180688083DF91C1
:10089000CF9108959091C00095FFFCCF8093C60042
:1008A0000895CF93DF93EC0103C021960E944A0480
:1008B00088818111FACFDF91CF91089597FB072EA0
:1008C00016F4009407D077FD09D00E94940407FC29
:1008D00005D03EF4909581959F4F08957095619550
:1008E0007F4F0895A1E21A2EAA1BBB1BFD010DC06C
:1008F000AA1FBB1FEE1FFF1FA217B307E407F507D0
:1009000020F0A21BB30BE40BF50B661F771F881FAB
:10091000991F1A9469F760957095809590959B0141
:10092000AC01BD01CF010895AA1BBB1B51E107C05B
:10093000AA1FBB1FA617B70710F0A61BB70B881F6F
:10094000991F5A95A9F780959095BC01CD010895FE
:10095000FC0188279927E89421912032E9F3293076
:1009600010F02E30C8F32B3241F02D3239F4689458
:1009700004C00E94C604820F911D219120532A3089
:10098000C0F31EF4909581959F4F08957AE0979F4C
:10099000902D879F802D910D11240895AEE0B0E039
:1009A000E4EDF4E00C948F070D891E8986E08C83BA
:1009B0001A8309838FEF9FE79E838D83AE01475E85
:1009C0005F4F6F89788DCE0101960E94F004EF8110
:1009D000F885E00FF11F10822E96E4E00C94AB072F
:1009E000ABE0B0E0E6EFF4E00C9481076C017B0132
:1009F0008A01FC0117821682838181FFCCC1CE015E
:100A000001963C01F6019381F70193FD859193FFD7
:100A100081917F01882309F4BAC1853239F493FDAD
:100A2000859193FF81917F01853229F4B60190E091
:100A30000E94E706E7CF912C212C312CFFE1F31522
:100A4000D8F08B3279F038F4803279F08332A1F427
:100A5000232D20611DC08D3261F0803369F4232D78
:100A6000216016C0832D8260382EE32DE4603E2E77
:100A70002AC0F32DF8601DC037FC2DC020ED280FD3
:100A80002A3040F08E32B9F436FC81C1232D206427
:100A9000322E19C036FE06C08AE0989E200D112421
:100AA000922E11C0EAE02E9E200D1124222EF32D4D
:100AB000F0623F2E08C08C3621F4832D8068382EDA
:100AC00002C0883641F4F70193FD859193FF81912F
:100AD0007F018111B3CF982F9F7D9554933028F4D7
:100AE0000C5F1F4F9FE399830DC0833631F083372E
:100AF00071F0833509F059C021C0F80180818983E4
:100B00000E5F1F4F88248394912C530113C028013A
:100B1000F2E04F0E511CF801A080B18036FE03C0F8
:100B2000692D70E002C06FEF7FEFC5010E94DC0607
:100B30004C018201F32DFF773F2E16C0280122E0E1
:100B4000420E511CF801A080B18036FE03C0692D11
:100B500070E002C06FEF7FEFC5010E94D1064C012B
:100B6000F32DF0683F2E820133FC1BC0822D90E0F4
:100B700088169906B0F4B60180E290E00E94E7067C
:100B80002A94F4CFF50137FC859137FE81915F01FE
:100B9000B60190E00E94E70621102A9421E0821A13
:100BA00091088114910471F7E8C0843611F08936F8
:100BB00041F5F80137FE07C0608171818281938120
:100BC0000C5F1F4F08C060817181072E000C880BDD
:100BD000990B0E5F1F4FF32DFF763F2E97FF09C035
:100BE00090958095709561957F4F8F4F9F4FF068DE
:100BF0003F2E2AE030E0A3010E942307882E8618AA
:100C000045C0853731F4232D2F7EB22E2AE030E007
:100C100025C0932D997FB92E8F36C1F018F48835F1
:100C200079F0B5C0803719F0883721F0B0C0E92FCE
:100C3000E061BE2EB4FE0DC0FB2DF460BF2E09C0D6
:100C400034FE0AC0292F2660B22E06C028E030E00C
:100C500005C020E130E002C020E132E0F801B7FE3B
:100C600007C060817181828193810C5F1F4F06C034
:100C70006081718180E090E00E5F1F4FA3010E94B0
:100C80002307882E8618FB2DFF773F2E36FE0DC0DA
:100C9000232D2E7FA22E891458F434FE0BC032FC73
:100CA00009C0832D8E7EA82E05C0B82CA32C03C0AE
:100CB000B82C01C0B92CA4FE0FC0FE01E80DF11D37
:100CC0008081803321F49A2D997EA92E09C0A2FE3D
:100CD00006C0B394B39404C08A2D867809F0B39407
:100CE000A3FC11C0A0FE06C0B21488F4280C922CFC
:100CF0009B180EC0B21460F4B60180E290E00E942E
:100D0000E706B394F7CFB21418F42B1802C0982C4E
:100D1000212CA4FE10C0B60180E390E00E94E706FB
:100D2000A2FE17C0A1FC03C088E790E002C088E5DE
:100D300090E0B6010CC08A2D867859F0A1FE02C061
:100D40008BE201C080E2A7FC8DE2B60190E00E9438
:100D5000E706891438F4B60180E390E00E94E706C4
:100D60009A94F7CF8A94F301E80DF11D8081B601C2
:100D700090E00E94E7068110F5CF222009F442CED0
:100D8000B60180E290E00E94E7062A94F6CFF601D1
:100D90008681978102C08FEF9FEF2B96E2E10C9442
:100DA0009D07FC010590615070400110D8F78095B7
:100DB00090958E0F9F1F0895FC0161507040019027
:100DC0000110D8F7809590958E0F9F1F08950F936F
:100DD0001F93CF93DF93FB01238121FD03C08FEF8E
:100DE0009FEF2CC022FF16C0468157812481358198
:100DF0004217530744F4A081B1819D012F5F3F4FFB
:100E0000318320838C93268137812F5F3F4F378337
:100E1000268314C08B01EC01FB010084F185E02DD9
:100E20000995892BE1F6D80116968D919C9117971B
:100E3000019617969C938E931697CE01DF91CF91D2
:100E40001F910F910895FA01AA27283051F12031FE
:100E500081F1E8946F936E7F6E5F7F4F8F4F9F4F4E
:100E6000AF4FB1E03ED0B4E03CD0670F781F891F90
:100E70009A1FA11D680F791F8A1F911DA11D6A0F5E
:100E8000711D811D911DA11D20D009F468943F9111
:100E90002AE0269F11243019305D3193DEF6CF0110
:100EA0000895462F4770405D4193B3E00FD0C9F7D6
:100EB000F6CF462F4F70405D4A3318F0495D31FD43
:100EC0004052419302D0A9F7EACFB4E0A695979596
:100ED000879577956795BA95C9F70097610571056C
:100EE00008959B01AC010A2E0694579547953795B6
:100EF0002795BA95C9F7620F731F841F951FA01D10
:100F000008952F923F924F925F926F927F928F92AD
:100F10009F92AF92BF92CF92DF92EF92FF920F9388
:100F20001F93CF93DF93CDB7DEB7CA1BDB0B0FB692
:100F3000F894DEBF0FBECDBF09942A88398848884F
:100F40005F846E847D848C849B84AA84B984C884E5
:100F5000DF80EE80FD800C811B81AA81B981CE0FDC
:100F6000D11D0FB6F894DEBF0FBECDBFED010895C1
:040F7000F894FFCF23
:100F74002B002A00022B002A00032B002A00052B39
:100F8400002A00062B002A00072500240000536FC6
:100F9400696C3A202564202825642525290D0A003A
:100FA4004E6F206E65636573697461206167756156
:100FB4000D0A004E6563657369746120616775612C
:100FC4000D0A0050756D702053544152540D0A009F
:100FD40050756D702053544F500D0A00536572764E
:100FE4006F204F50454E0D0A00536572766F2043B3
:100FF4004C4F53450D0A0046616E204F4E0D0A00BA
:1010040046616E204F46460D0A0046616E2073709D
:101014006565643A2025640D0A00494E5645524ED2
:10102400414445524F204F4B0053697374656D61C1
:10103400206C6973746F0D0A0048756D6564616492
:0A1044003A20253364252520200002
:00000001FF
