:100000000C9434000C9451000C9451000C94510049
:100010000C9451000C9451000C9451000C9451001C
:100020000C9451000C9451000C9451000C9451000C
:100030000C9451000C9451000C9451000C945100FC
:100040000C9451000C9451000C94C1010C9451007B
:100050000C9451000C9451000C9451000C945100DC
:100060000C9451000C94510011241FBECFEFD8E026
:10007000DEBFCDBF11E0A0E0B1E0ECEAFAE002C0E3
:1000800005900D92A237B107D9F721E0A2E7B1E0C0
:1000900001C01D92A439B207E1F70E94F3010C944C
:1000A00054050C9400000F931F93CF938B019C0178
:1000B000C42F87B18F7C87B9E9EBF0E080818C7F1A
:1000C0008083403141F0403461F0443079F48081E4
:1000D000816080830BC0E9EBF0E0808182608083E7
:1000E00005C0E9EBF0E080818360808360E074E22A
:1000F00084EF90E0A90198010E944802CA01B90169
:1001000060517109810991094C2F50E09A01220F29
:10011000331F032E000C440B550B0E944802209302
:10012000B800CF911F910F91089584EA8093BC008D
:1001300080E090E007C09C012F5F3F4F81319742E4
:1001400068F4C9012091BC002223ACF79091B9005A
:10015000987F81E0983019F080E0089580E008955C
:1001600084EA8093BC008091BC008823E4F79091DE
:10017000B900987F81E0903109F080E0089584E92A
:100180008093BC0008958093BB0084E88093BC00FA
:100190008091BC008823E4F78091B900887F08959E
:1001A000FC01662321F084EC8093BC000CC084E841
:1001B0008093BC0008C0A9014F5F5F4F21313742D7
:1001C000C0F49A0102C020E030E09091BC00992375
:1001D00094F79091B900987F662311F0903521F043
:1001E000611109C0983549F48091BB00808381E09A
:1001F000089580E0089580E0089580E008950E94C9
:10020000950080E60E94C30080E20E94C3000E9425
:10021000BF0008950E94950080E60E94C30081E21D
:100220000E94C3000E94BF0008950E94950080E6CE
:100230000E94C30080E10E94C3000E94BF00089595
:100240000E94950080E60E94C30081E10E94C300E5
:100250000E94BF000895CF93DF931F92CDB7DEB702
:1002600019820E949500882391F082E60E94C300C3
:1002700080E40E94C3000E94B00083E60E94C30095
:1002800060E0CE0101960E94D0000E94BF008981EB
:100290000F90DF91CF910895EF92FF921F93CF932C
:1002A000DF93CDB7DEB7A8970FB6F894DEBF0FBEC9
:1002B000CDBF80917401813529F50E942B01182F43
:1002C0001F928F9380E091E09F938F93CE010196D0
:1002D0007C019F938F930E946A02C7010E943B0298
:1002E0000F900F900F900F900F900F90103528F4F3
:1002F0008BE091E00E943B0238C08BE191E00E94CC
:100300003B0233C0809174018035B1F48091750156
:10031000813339F40E94FF008EE291E00E943B029B
:1003200024C080917501803301F50E940A018BE39E
:1003300091E00E943B0219C0809174018335A9F4B9
:1003400080917501813339F40E94150187E491E0B1
:100350000E943B020AC080917501803331F40E94F3
:10036000200184E591E00E943B02A8960FB6F89424
:10037000DEBF0FBECDBFDF91CF911F91FF90EF90F9
:1003800008951F920F920FB60F9211248F939F938F
:10039000EF93FF938091C6008A3011F08D3061F4A5
:1003A000E0917301F0E0EC58FE4F108281E0809301
:1003B0007201109273010EC0909173019F3150F43D
:1003C000E091730191E09E0F90937301F0E0EC587F
:1003D000FE4F8083FF91EF919F918F910F900FBE01
:1003E0000F901F90189541E060EA76E881E090E078
:1003F0000E94530061E080ED90E00E940D0278942D
:1004000082E691E00E943B02809172018823E1F331
:100410000E944C0110927201F7CFCF93DF939C01A1
:100420009AB192609AB99AB19E7F9AB9E0ECF0E0E5
:100430001082A1ECB0E01C92C2ECD0E01882908156
:10044000926090833093C5002093C40086E0888337
:1004500088E18C93613029F4E1ECF0E080818068E0
:100460008083DF91CF9108959091C00095FFFCCFDC
:100470008093C6000895CF93DF93EC0103C02196CB
:100480000E94340288818111FACFDF91CF910895C3
:10049000A1E21A2EAA1BBB1BFD010DC0AA1FBB1F88
:1004A000EE1FFF1FA217B307E407F50720F0A21BFA
:1004B000B30BE40BF50B661F771F881F991F1A9467
:1004C00069F760957095809590959B01AC01BD0191
:1004D000CF010895AEE0B0E0E0E7F2E00C942B0528
:1004E0000D891E8986E08C831A8309838FEF9FE72D
:1004F0009E838D83AE01475E5F4F6F89788DCE01FD
:1005000001960E948C02EF81F885E00FF11F1082A6
:100510002E96E4E00C944705ABE0B0E0E2E9F2E0AF
:100520000C941D056C017B018A01FC011782168267
:10053000838181FFCCC1CE0101963C01F6019381FC
:10054000F70193FD859193FF81917F01882309F441
:10055000BAC1853239F493FD859193FF81917F0172
:10056000853229F4B60190E00E948304E7CF912CF4
:10057000212C312CFFE1F315D8F08B3279F038F4CF
:10058000803279F08332A1F4232D20611DC08D3299
:1005900061F0803369F4232D216016C0832D8260C1
:1005A000382EE32DE4603E2E2AC0F32DF8601DC0E6
:1005B00037FC2DC020ED280F2A3040F08E32B9F4E0
:1005C00036FC81C1232D2064322E19C036FE06C0B0
:1005D0008AE0989E200D1124922E11C0EAE02E9EF2
:1005E000200D1124222EF32DF0623F2E08C08C36F0
:1005F00021F4832D8068382E02C0883641F4F7013B
:1006000093FD859193FF81917F018111B3CF982F45
:100610009F7D9554933028F40C5F1F4F9FE399837F
:100620000DC0833631F0833771F0833509F059C03E
:1006300021C0F801808189830E5F1F4F8824839435
:10064000912C530113C02801F2E04F0E511CF80108
:10065000A080B18036FE03C0692D70E002C06FEF4C
:100660007FEFC5010E9478044C018201F32DFF77D2
:100670003F2E16C0280122E0420E511CF801A08036
:10068000B18036FE03C0692D70E002C06FEF7FEFCE
:10069000C5010E946D044C01F32DF0683F2E8201CC
:1006A00033FC1BC0822D90E088169906B0F4B60189
:1006B00080E290E00E9483042A94F4CFF50137FC95
:1006C000859137FE81915F01B60190E00E9483041D
:1006D00021102A9421E0821A91088114910471F763
:1006E000E8C0843611F0893641F5F80137FE07C0BD
:1006F00060817181828193810C5F1F4F08C060818E
:100700007181072E000C880B990B0E5F1F4FF32D84
:10071000FF763F2E97FF09C0909580957095619563
:100720007F4F8F4F9F4FF0683F2E2AE030E0A301AC
:100730000E94BF04882E861845C0853731F4232DCA
:100740002F7EB22E2AE030E025C0932D997FB92E5E
:100750008F36C1F018F4883579F0B5C0803719F0BC
:10076000883721F0B0C0E92FE061BE2EB4FE0DC085
:10077000FB2DF460BF2E09C034FE0AC0292F26606D
:10078000B22E06C028E030E005C020E130E002C013
:1007900020E132E0F801B7FE07C0608171818281FB
:1007A00093810C5F1F4F06C06081718180E090E0F3
:1007B0000E5F1F4FA3010E94BF04882E8618FB2DD9
:1007C000FF773F2E36FE0DC0232D2E7FA22E8914DB
:1007D00058F434FE0BC032FC09C0832D8E7EA82E47
:1007E00005C0B82CA32C03C0B82C01C0B92CA4FEA2
:1007F0000FC0FE01E80DF11D8081803321F49A2D98
:10080000997EA92E09C0A2FE06C0B394B39404C079
:100810008A2D867809F0B394A3FC11C0A0FE06C00F
:10082000B21488F4280C922C9B180EC0B21460F4F9
:10083000B60180E290E00E948304B394F7CFB21433
:1008400018F42B1802C0982C212CA4FE10C0B6015D
:1008500080E390E00E948304A2FE17C0A1FC03C0C5
:1008600088E790E002C088E590E0B6010CC08A2DD0
:10087000867859F0A1FE02C08BE201C080E2A7FC9D
:100880008DE2B60190E00E948304891438F4B60129
:1008900080E390E00E9483049A94F7CF8A94F30156
:1008A000E80DF11D8081B60190E00E948304811063
:1008B000F5CF222009F442CEB60180E290E00E94FA
:1008C00083042A94F6CFF6018681978102C08FEFC8
:1008D0009FEF2B96E2E10C943905FC0105906150E5
:1008E00070400110D8F7809590958E0F9F1F089546
:1008F000FC016150704001900110D8F780959095EF
:100900008E0F9F1F08950F931F93CF93DF93FB01CB
:10091000238121FD03C08FEF9FEF2CC022FF16C063
:1009200046815781248135814217530744F4A081C1
:10093000B1819D012F5F3F4F318320838C932681AE
:1009400037812F5F3F4F3783268314C08B01EC0123
:10095000FB010084F185E02D0995892BE1F6D80192
:1009600016968D919C911797019617969C938E934E
:100970001697CE01DF91CF911F910F910895FA0143
:10098000AA27283051F1203181F1E8946F936E7FCE
:100990006E5F7F4F8F4F9F4FAF4FB1E03ED0B4E0BF
:1009A0003CD0670F781F891F9A1FA11D680F791F00
:1009B0008A1F911DA11D6A0F711D811D911DA11D11
:1009C00020D009F468943F912AE0269F1124301921
:1009D000305D3193DEF6CF010895462F4770405DBC
:1009E0004193B3E00FD0C9F7F6CF462F4F70405D6B
:1009F0004A3318F0495D31FD4052419302D0A9F7C6
:100A0000EACFB4E0A6959795879577956795BA95BF
:100A1000C9F700976105710508959B01AC010A2E85
:100A200006945795479537952795BA95C9F7620F5C
:100A3000731F841F951FA01D08952F923F924F9200
:100A40005F926F927F928F929F92AF92BF92CF925E
:100A5000DF92EF92FF920F931F93CF93DF93CDB767
:100A6000DEB7CA1BDB0B0FB6F894DEBF0FBECDBFDF
:100A700009942A88398848885F846E847D848C84B0
:100A80009B84AA84B984C884DF80EE80FD800C81B9
:100A90001B81AA81B981CE0FD11D0FB6F894DEBF9C
:0C0AA0000FBECDBFED010895F894FFCF0C
:100AAC00536F696C3A2025640D0A004E65636573BB
:100ABC0069746120616775610D0A004E6F206E6567
:100ACC0063657369746120616775610D0A00507507
:100ADC006D702053544152540D0A0050756D7020A6
:100AEC0053544F500D0A00536572766F204F50458A
:100AFC004E0D0A00536572766F20434C4F53450DD3
:100B0C000A0053697374656D61206C6973746F0DA1
:020B1C000A00CD
:00000001FF
