S00F00004D61657374726F2E737265633A
S11300000C9434000C9451000C9451000C94510045
S11300100C9451000C9451000C9451000C94510018
S11300200C9451000C9451000C9451000C94510008
S11300300C9451000C9451000C9451000C945100F8
S11300400C9451000C9451000C9415010C94510023
S11300500C9451000C9451000C9451000C945100D8
S11300600C9451000C94510011241FBECFEFD8E022
S1130070DEBFCDBF11E0A0E0B1E0E0E8F3E002C0F4
S113008005900D92A434B107D9F721E0A4E4B1E0BE
S113009001C01D92A636B207E1F70E9447010C94F5
S11300A0BE010C9400000F931F93CF938B019C010E
S11300B0C42F87B18F7C87B9E9EBF0E080818C7F16
S11300C08083403141F0403461F0443079F48081E0
S11300D0816080830BC0E9EBF0E0808182608083E3
S11300E005C0E9EBF0E080818360808360E074E226
S11300F084EF90E0A90198010E949C01CA01B90112
S113010060517109810991094C2F50E09A01220F25
S1130110331F032E000C440B550B0E949C012093AB
S1130120B800CF911F910F91089584EA8093BC0089
S11301308091BC008823E4F79091B900987F81E016
S1130140983009F080E0089584E98093BC00089514
S11301508093BB0084E88093BC008091BC0088231A
S1130160E4F78091B900887F08950E94950080E6A5
S11301700E94A80080E20E94A8000E94A4000895A2
S11301800E94950080E60E94A80081E20E94A800D7
S11301900E94A40008950E94950080E60E94A80091
S11301A080E10E94A8000E94A40008950E94950086
S11301B080E60E94A80081E10E94A8000E94A40099
S11301C00895809146018035B1F4809147018133CF
S11301D039F40E94B50080E091E00E948F010895F7
S11301E080914701803301F50E94C0008DE091E0C9
S11301F00E948F010895809146018335A9F480916E
S11302004701813339F40E94CB0089E191E00E94D7
S11302108F01089580914701803331F40E94D60004
S113022086E291E00E948F0108951F920F920FB60B
S11302300F9211248F939F93EF93FF938091C600A5
S11302408A3011F08D3061F4E0914501F0E0EA5B11
S1130250FE4F108281E080934401109245010EC04C
S1130260909145019F3150F4E091450191E09E0F3A
S113027090934501F0E0EA5BFE4F8083FF91EF919C
S11302809F918F910F900FBE0F901F90189541E092
S113029060EA76E881E090E00E94530061E080ED3E
S11302A090E00E946101789484E391E00E948F01C0
S11302B0809144018823E1F30E94E10010924401FB
S11302C0F7CFCF93DF939C019AB192609AB99AB118
S11302D09E7F9AB9E0ECF0E01082A1ECB0E01C92B1
S11302E0C2ECD0E018829081926090833093C50074
S11302F02093C40086E0888388E18C93613029F4DC
S1130300E1ECF0E0808180688083DF91CF910895F3
S11303109091C00095FFFCCF8093C6000895CF93C1
S1130320DF93EC0103C021960E948801888181112A
S1130330FACFDF91CF910895A1E21A2EAA1BBB1B1D
S1130340FD010DC0AA1FBB1FEE1FFF1FA217B3079D
S1130350E407F50720F0A21BB30BE40BF50B661FB3
S1130360771F881F991F1A9469F760957095809577
S113037090959B01AC01BD01CF010895F894FFCF86
S113038050756D702053544152540D0A0050756DD0
S1130390702053544F500D0A00536572766F204FEE
S11303A050454E0D0A00536572766F20434C4F53EF
S11303B0450D0A0053697374656D61206C6973742B
S10703C06F0D0A00AF
S9030000FC
