S027000050726F796563746F315F4573636C61766F5F534552564F5F537465707065722E737265631B
S11300000C9434000C9451000C9451000C94510045
S11300100C9451000C9451000C9451000C94510018
S11300200C9451000C9451000C9451000C94510008
S11300300C9451000C9451000C9451000C945100F8
S11300400C9451000C9451000C9451000C945100E8
S11300500C9451000C9451000C9451000C945100D8
S11300600C9451000C94510011241FBECFEFD8E022
S1130070DEBFCDBF11E0A0E0B1E0E0E6F2E002C0F7
S113008005900D92A830B107D9F721E0A8E0B1E0BE
S113009001C01D92AC30B207E1F70E9453000C94EA
S11300A02E010C94000080E30E94E1000E947A007B
S11300B00E94A6000E94E800813199F018F4803172
S11300C061F012C0803219F0813221F00DC00E941B
S11300D0AA000AC00E94AE0007C088E70E949000F0
S11300E003C084E10E94900084EC8093BC000E94D1
S11300F0B400E0CF84B1826084B982E88093800048
S11301008AE1809381008FE39CE990938700809338
S1130110860080EB94E09093890080938800089592
S1130120853B08F084EB282F30E0A0E1BEE00E947C
S11301301F0124EB30E040E050E00E94FD00205518
S11301403B4F309389002093880008958AB1806FD3
S11301508AB9089581E080930A01089510920A01F2
S11301608BB18F708BB9089580910A01882341F176
S1130170809108019091090101969093090180935F
S11301800801803D9740E0F01092090110920801A7
S113019080910B0190E0019687709078992324F464
S11301A00197886F9F6F019680930B012BB1E82F05
S11301B0F0E0E050FF4F9081822F8F70892B8BB934
S11301C00895880F8093BA0084EC8093BC0008954E
S11301D08091BC008823E4F78091B900887F803641
S11301E051F484EC8093BC008091BC008823E4F734
S11301F08091BB0008958FEF0895A1E21A2EAA1BE7
S1130200BB1BFD010DC0AA1FBB1FEE1FFF1FA217C2
S1130210B307E407F50720F0A21BB30BE40BF50BBF
S1130220661F771F881F991F1A9469F76095709548
S1130230809590959B01AC01BD01CF010895A29FCB
S1130240B001B39FC001A39F700D811D1124911DA6
S1130250B29F700D811D1124911D0895F894FFCF54
S10B02601030206040C08090C2
S9030000FC
