:100000000C9434000C9446000C9446000C9446006A
:100010000C9446000C9446000C9446000C94460048
:100020000C9446000C9446000C9446000C94460038
:100030000C9446000C9446000C9446000C94460028
:100040000C9446000C9446000C9446000C94460018
:100050000C9446000C9446000C9446000C94460008
:100060000C9446000C94460011241FBECFEFD8E03C
:10007000DEBFCDBF21E0A0E0B1E001C01D92A23003
:10008000B207E1F70E9448000C94DA000C940000DB
:100090000E946F0080E290E00E949B008091B90076
:1000A000887F8038D9F78091BB008093000181312F
:1000B00059F0823169F0803171F40E94A20080937E
:1000C00001010E94850007C088E70E94850003C0E7
:1000D00084E10E94850084EC8093BC00DFCF84B172
:1000E000826084B982E8809380008AE180938100F5
:1000F0008FE39CE9909387008093860080ED97E0E2
:1001000090938900809388000895853B08F084EBE4
:10011000282F30E0A0EDB7E00E94CB0024EB30E0C8
:1001200040E050E00E94A9002053384F30938900EE
:10013000209388000895880F8093BA0084E4809308
:10014000BC0008958091BC008823E4F78091BB0037
:100150000895A1E21A2EAA1BBB1BFD010DC0AA1F08
:10016000BB1FEE1FFF1FA217B307E407F50720F020
:10017000A21BB30BE40BF50B661F771F881F991F9B
:100180001A9469F760957095809590959B01AC01E4
:10019000BD01CF010895A29FB001B39FC001A39FED
:1001A000700D811D1124911DB29F700D811D1124B0
:0801B000911D0895F894FFCFA2
:00000001FF
