:100000000C9434000C9451000C9451000C94510049
:100010000C9451000C9451000C9451000C9451001C
:100020000C9451000C9451000C9451000C9451000C
:100030000C9451000C9451000C9451000C945100FC
:100040000C9451000C9451000C9451000C945100EC
:100050000C9451000C9451000C9451000C945100DC
:100060000C9451000C94510011241FBECFEFD8E026
:10007000DEBFCDBF11E0A0E0B1E0EEE5F2E002C0EE
:1000800005900D92A830B107D9F721E0A8E0B1E0C2
:1000900001C01D92A930B207E1F70E9453000C94F1
:1000A0002D010C94000080E30E94D6000E9476008F
:1000B0000E94A2000E94DD00813141F0803251F0A7
:1000C000803181F488E70E948C000CC084E10E949A
:1000D0008C0008C00E94F20022E3829FC00111241C
:1000E0000E94AA0084EC8093BC00E4CF84B18260BB
:1000F00084B982E8809380008AE1809381008FE355
:100100009CE9909387008093860080EB94E0909325
:100110008900809388000895853B08F084EB282FA0
:1001200030E0A0E1BEE00E941E0124EB30E040E0A0
:1001300050E00E94FC0020553B4F309389002093F3
:10014000880008958AB1806F8AB908958BB18F7045
:100150008BB90895BC0140E050E022C02091080115
:1001600030E02F5F3F4F27703078332334F4215035
:100170003109286F3F6F2F5F3F4F209308019BB1DC
:10018000E22FF0E0E050FF4F20819F70922B9BB94F
:100190008FE39FE10197F1F700C000004F5F5F4FD1
:1001A00046175707D8F20E94A6000895880F80933B
:1001B000BA0084EC8093BC0008958091BC00882331
:1001C000E4F78091B900887F803651F484EC809305
:1001D000BC008091BC008823E4F78091BB000895A7
:1001E0008FEF089584EC8093BC008091BC0088233D
:1001F000E4F78091BB000895A1E21A2EAA1BBB1B55
:10020000FD010DC0AA1FBB1FEE1FFF1FA217B307E2
:10021000E407F50720F0A21BB30BE40BF50B661FF8
:10022000771F881F991F1A9469F7609570958095BC
:1002300090959B01AC01BD01CF010895A29FB00133
:10024000B39FC001A39F700D811D1124911DB29F0A
:0E025000700D811D1124911D0895F894FFCFAB
:08025E001030206040C08090C8
:00000001FF
