:100000000C9434000C943E000C943E000C943E0082
:100010000C943E000C943E000C943E000C943E0068
:100020000C943E000C943E000C943E000C943E0058
:100030000C943E000C943E000C943E000C943E0048
:100040000C943E000C943E000C943E000C943E0038
:100050000C943E000C943E000C943E000C943E0028
:100060000C943E000C943E0011241FBECFEFD8E04C
:10007000DEBFCDBF0E9478000C94A3000C9400005A
:1000800080E480937C0087E880937A000895ECE711
:10009000F0E09081907F8F70892B8083EAE7F0E019
:1000A00080818064808380917A0086FDFCCF80917E
:1000B0007800909179000895880F8093BA0084ECBD
:1000C0008093BC0008958091BC008823E4F7809160
:1000D000B900887F803651F484EC8093BC00809115
:1000E000BC008823E4F78091BB0008958FEF08954A
:1000F00081E30E945C000E94400084B1816084B969
:1001000085B18E7F85B90E9463008034C1F485B1CA
:10011000816085B92FEF80E792E0215080409040C8
:10012000E1F700C0000080E00E94470025B12E7F6B
:1001300025B996958795969587958093BB0084EC15
:0A0140008093BC00E0CFF894FFCFDD
:00000001FF
