:100000000C9434000C943E000C943E000C943E0082
:100010000C943E000C943E000C943E000C943E0068
:100020000C943E000C943E000C943E000C943E0058
:100030000C943E000C943E000C943E000C943E0048
:100040000C943E000C943E000C943E000C943E0038
:100050000C943E000C943E000C943E000C943E0028
:100060000C943E000C943E0011241FBECFEFD8E04C
:10007000DEBFCDBF0E9491000C94CA000C9400001A
:1000800080E480937C0087E880937A000895ECE711
:10009000F0E09081907F8F70892B8083EAE7F0E019
:1000A00080818064808380917A0086FDFCCF80917E
:1000B00078009091790008958AB1806E8AB983E2C0
:1000C0008093B00082E08093B1001092B400089554
:1000D0008BB180628BB98BB180748BB988EC8093C3
:1000E000B40008951092B4000895880F8093BA0068
:1000F00084EC8093BC0008958091BC008823E4F7D1
:100100008091B900887F803651F484EC8093BC00E4
:100110008091BC008823E4F78091BB0008958FEFA5
:10012000089581E30E9475000E9440000E945C00D7
:1001300084B1816084B985B18E7F85B90E947C00CD
:100140008F3FE1F38134E9F08234F1F08034F1F44F
:1001500085B1816085B92FEF80E792E02150804022
:100160009040E1F700C0000080E00E94470025B108
:100170002E7F25B996958795969587958093BB0098
:1001800005C00E94680002C00E94720084EC809347
:08019000BC00D4CFF894FFCFAE
:00000001FF
