:100000000C9434000C9451000C9451000C94510049
:100010000C9451000C9451000C9451000C9451001C
:100020000C9451000C9451000C9451000C9451000C
:100030000C9451000C9451000C9451000C945100FC
:100040000C9451000C9451000C9451000C945100EC
:100050000C9451000C9451000C9451000C945100DC
:100060000C9451000C94510011241FBECFEFD8E026
:10007000DEBFCDBF11E0A0E0B1E0ECE8F2E002C0ED
:1000800005900D92A031B107D9F721E0A0E1B1E0D0
:1000900001C01D92A131B207E1F70E94D3000C9478
:1000A00044010C94000080E480937C0087E88093F6
:1000B0007A000895ECE7F0E09081907F8F70892BB3
:1000C0008083EAE7F0E080818064808380917A0019
:1000D00086FDFCCF809178009091790008958AB1D7
:1000E000806E8AB983E28093B00082E08093B10091
:1000F0001092B40008958BB180628BB98BB18F7B65
:100100008BB988EC8093B40008951092B4000895E0
:10011000880F8093BA0084EC8093BC00089580918E
:10012000BC008823F4F58091B900887F803AC1F043
:1001300028F4803651F0803869F02EC0883BF1F009
:10014000803C29F1883A41F510C084EC8093BC00D2
:100150008FEF08958091BB0094EC9093BC000895BC
:1001600084EC8093BC008FEF089580911001809300
:10017000BB0084EC8093BC008FEF08958091100148
:100180008093BB0084EC8093BC008FEF089584ECD7
:100190008093BC008FEF089584EC8093BC008FEFB8
:1001A00008958FEF089560E080ED90E00E940901CE
:1001B00080E091E00E94370181E30E9488000E9464
:1001C00053000E946F0084B1816084B985B18E7F35
:1001D00085B90E948F008F3FE1F38134A1F0823412
:1001E000A9F08034B1F785B1816085B980E00E94C3
:1001F0005A0025B12E7F25B99695879596958795B6
:1002000080931001E6CF0E947B00E3CF0E9485001F
:10021000E0CFCF93DF939C019AB192609AB99AB1E3
:100220009E7F9AB9E0ECF0E01082A1ECB0E01C9265
:10023000C2ECD0E018829081926090833093C50028
:100240002093C40086E0888388E18C93613029F490
:10025000E1ECF0E0808180688083DF91CF910895A8
:100260009091C00095FFFCCF8093C6000895CF9376
:10027000DF93EC0103C021960E9430018881811137
:0C028000FACFDF91CF910895F894FFCFE2
:10028C0053656E736F72206C6973746F0D0A000086
:00000001FF
